{
  "contractName": "PeopleTang",
  "abi": [
    {
      "inputs": [
        {
          "internalType": "string",
          "name": "_name",
          "type": "string"
        },
        {
          "internalType": "string",
          "name": "_symbol",
          "type": "string"
        }
      ],
      "stateMutability": "nonpayable",
      "type": "constructor"
    },
    {
      "anonymous": false,
      "inputs": [
        {
          "indexed": true,
          "internalType": "address",
          "name": "owner",
          "type": "address"
        },
        {
          "indexed": true,
          "internalType": "address",
          "name": "approved",
          "type": "address"
        },
        {
          "indexed": true,
          "internalType": "uint256",
          "name": "tokenId",
          "type": "uint256"
        }
      ],
      "name": "Approval",
      "type": "event"
    },
    {
      "anonymous": false,
      "inputs": [
        {
          "indexed": true,
          "internalType": "address",
          "name": "owner",
          "type": "address"
        },
        {
          "indexed": true,
          "internalType": "address",
          "name": "operator",
          "type": "address"
        },
        {
          "indexed": false,
          "internalType": "bool",
          "name": "approved",
          "type": "bool"
        }
      ],
      "name": "ApprovalForAll",
      "type": "event"
    },
    {
      "anonymous": false,
      "inputs": [
        {
          "indexed": false,
          "internalType": "uint256",
          "name": "_fromTokenId",
          "type": "uint256"
        },
        {
          "indexed": false,
          "internalType": "uint256",
          "name": "_toTokenId",
          "type": "uint256"
        }
      ],
      "name": "BatchMetadataUpdate",
      "type": "event"
    },
    {
      "anonymous": false,
      "inputs": [
        {
          "indexed": false,
          "internalType": "uint256",
          "name": "newPrice",
          "type": "uint256"
        }
      ],
      "name": "ChangePrice",
      "type": "event"
    },
    {
      "anonymous": false,
      "inputs": [
        {
          "indexed": false,
          "internalType": "uint256",
          "name": "_tokenId",
          "type": "uint256"
        }
      ],
      "name": "MetadataUpdate",
      "type": "event"
    },
    {
      "anonymous": false,
      "inputs": [
        {
          "indexed": false,
          "internalType": "address",
          "name": "account",
          "type": "address"
        },
        {
          "indexed": false,
          "internalType": "string",
          "name": "uri",
          "type": "string"
        }
      ],
      "name": "Mint",
      "type": "event"
    },
    {
      "anonymous": false,
      "inputs": [
        {
          "indexed": false,
          "internalType": "address[]",
          "name": "receivers",
          "type": "address[]"
        },
        {
          "indexed": false,
          "internalType": "string[]",
          "name": "uris",
          "type": "string[]"
        }
      ],
      "name": "MintOwner",
      "type": "event"
    },
    {
      "anonymous": false,
      "inputs": [
        {
          "indexed": true,
          "internalType": "address",
          "name": "previousOwner",
          "type": "address"
        },
        {
          "indexed": true,
          "internalType": "address",
          "name": "newOwner",
          "type": "address"
        }
      ],
      "name": "OwnershipTransferred",
      "type": "event"
    },
    {
      "anonymous": false,
      "inputs": [
        {
          "indexed": true,
          "internalType": "address",
          "name": "from",
          "type": "address"
        },
        {
          "indexed": true,
          "internalType": "address",
          "name": "to",
          "type": "address"
        },
        {
          "indexed": true,
          "internalType": "uint256",
          "name": "tokenId",
          "type": "uint256"
        }
      ],
      "name": "Transfer",
      "type": "event"
    },
    {
      "anonymous": false,
      "inputs": [
        {
          "indexed": false,
          "internalType": "address",
          "name": "account",
          "type": "address"
        },
        {
          "indexed": false,
          "internalType": "uint256",
          "name": "amount",
          "type": "uint256"
        }
      ],
      "name": "Withdraw",
      "type": "event"
    },
    {
      "inputs": [],
      "name": "_CUR_TOKENID_",
      "outputs": [
        {
          "internalType": "uint256",
          "name": "",
          "type": "uint256"
        }
      ],
      "stateMutability": "view",
      "type": "function",
      "constant": true
    },
    {
      "inputs": [
        {
          "internalType": "address",
          "name": "to",
          "type": "address"
        },
        {
          "internalType": "uint256",
          "name": "tokenId",
          "type": "uint256"
        }
      ],
      "name": "approve",
      "outputs": [],
      "stateMutability": "nonpayable",
      "type": "function"
    },
    {
      "inputs": [
        {
          "internalType": "address",
          "name": "owner",
          "type": "address"
        }
      ],
      "name": "balanceOf",
      "outputs": [
        {
          "internalType": "uint256",
          "name": "",
          "type": "uint256"
        }
      ],
      "stateMutability": "view",
      "type": "function",
      "constant": true
    },
    {
      "inputs": [
        {
          "internalType": "uint256",
          "name": "tokenId",
          "type": "uint256"
        }
      ],
      "name": "getApproved",
      "outputs": [
        {
          "internalType": "address",
          "name": "",
          "type": "address"
        }
      ],
      "stateMutability": "view",
      "type": "function",
      "constant": true
    },
    {
      "inputs": [
        {
          "internalType": "address",
          "name": "owner",
          "type": "address"
        },
        {
          "internalType": "address",
          "name": "operator",
          "type": "address"
        }
      ],
      "name": "isApprovedForAll",
      "outputs": [
        {
          "internalType": "bool",
          "name": "",
          "type": "bool"
        }
      ],
      "stateMutability": "view",
      "type": "function",
      "constant": true
    },
    {
      "inputs": [],
      "name": "maxCount",
      "outputs": [
        {
          "internalType": "uint256",
          "name": "",
          "type": "uint256"
        }
      ],
      "stateMutability": "view",
      "type": "function",
      "constant": true
    },
    {
      "inputs": [],
      "name": "name",
      "outputs": [
        {
          "internalType": "string",
          "name": "",
          "type": "string"
        }
      ],
      "stateMutability": "view",
      "type": "function",
      "constant": true
    },
    {
      "inputs": [],
      "name": "owner",
      "outputs": [
        {
          "internalType": "address",
          "name": "",
          "type": "address"
        }
      ],
      "stateMutability": "view",
      "type": "function",
      "constant": true
    },
    {
      "inputs": [
        {
          "internalType": "uint256",
          "name": "tokenId",
          "type": "uint256"
        }
      ],
      "name": "ownerOf",
      "outputs": [
        {
          "internalType": "address",
          "name": "",
          "type": "address"
        }
      ],
      "stateMutability": "view",
      "type": "function",
      "constant": true
    },
    {
      "inputs": [],
      "name": "price",
      "outputs": [
        {
          "internalType": "uint256",
          "name": "",
          "type": "uint256"
        }
      ],
      "stateMutability": "view",
      "type": "function",
      "constant": true
    },
    {
      "inputs": [],
      "name": "renounceOwnership",
      "outputs": [],
      "stateMutability": "nonpayable",
      "type": "function"
    },
    {
      "inputs": [
        {
          "internalType": "address",
          "name": "from",
          "type": "address"
        },
        {
          "internalType": "address",
          "name": "to",
          "type": "address"
        },
        {
          "internalType": "uint256",
          "name": "tokenId",
          "type": "uint256"
        }
      ],
      "name": "safeTransferFrom",
      "outputs": [],
      "stateMutability": "nonpayable",
      "type": "function"
    },
    {
      "inputs": [
        {
          "internalType": "address",
          "name": "from",
          "type": "address"
        },
        {
          "internalType": "address",
          "name": "to",
          "type": "address"
        },
        {
          "internalType": "uint256",
          "name": "tokenId",
          "type": "uint256"
        },
        {
          "internalType": "bytes",
          "name": "data",
          "type": "bytes"
        }
      ],
      "name": "safeTransferFrom",
      "outputs": [],
      "stateMutability": "nonpayable",
      "type": "function"
    },
    {
      "inputs": [
        {
          "internalType": "address",
          "name": "operator",
          "type": "address"
        },
        {
          "internalType": "bool",
          "name": "approved",
          "type": "bool"
        }
      ],
      "name": "setApprovalForAll",
      "outputs": [],
      "stateMutability": "nonpayable",
      "type": "function"
    },
    {
      "inputs": [],
      "name": "symbol",
      "outputs": [
        {
          "internalType": "string",
          "name": "",
          "type": "string"
        }
      ],
      "stateMutability": "view",
      "type": "function",
      "constant": true
    },
    {
      "inputs": [
        {
          "internalType": "uint256",
          "name": "index",
          "type": "uint256"
        }
      ],
      "name": "tokenByIndex",
      "outputs": [
        {
          "internalType": "uint256",
          "name": "",
          "type": "uint256"
        }
      ],
      "stateMutability": "view",
      "type": "function",
      "constant": true
    },
    {
      "inputs": [
        {
          "internalType": "address",
          "name": "owner",
          "type": "address"
        },
        {
          "internalType": "uint256",
          "name": "index",
          "type": "uint256"
        }
      ],
      "name": "tokenOfOwnerByIndex",
      "outputs": [
        {
          "internalType": "uint256",
          "name": "",
          "type": "uint256"
        }
      ],
      "stateMutability": "view",
      "type": "function",
      "constant": true
    },
    {
      "inputs": [],
      "name": "totalSupply",
      "outputs": [
        {
          "internalType": "uint256",
          "name": "",
          "type": "uint256"
        }
      ],
      "stateMutability": "view",
      "type": "function",
      "constant": true
    },
    {
      "inputs": [
        {
          "internalType": "address",
          "name": "from",
          "type": "address"
        },
        {
          "internalType": "address",
          "name": "to",
          "type": "address"
        },
        {
          "internalType": "uint256",
          "name": "tokenId",
          "type": "uint256"
        }
      ],
      "name": "transferFrom",
      "outputs": [],
      "stateMutability": "nonpayable",
      "type": "function"
    },
    {
      "inputs": [
        {
          "internalType": "address",
          "name": "newOwner",
          "type": "address"
        }
      ],
      "name": "transferOwnership",
      "outputs": [],
      "stateMutability": "nonpayable",
      "type": "function"
    },
    {
      "inputs": [
        {
          "internalType": "string[]",
          "name": "uris",
          "type": "string[]"
        }
      ],
      "name": "mint",
      "outputs": [],
      "stateMutability": "payable",
      "type": "function",
      "payable": true
    },
    {
      "inputs": [
        {
          "internalType": "bytes4",
          "name": "interfaceId",
          "type": "bytes4"
        }
      ],
      "name": "supportsInterface",
      "outputs": [
        {
          "internalType": "bool",
          "name": "",
          "type": "bool"
        }
      ],
      "stateMutability": "view",
      "type": "function",
      "constant": true
    },
    {
      "inputs": [
        {
          "internalType": "uint256",
          "name": "tokenId",
          "type": "uint256"
        }
      ],
      "name": "tokenURI",
      "outputs": [
        {
          "internalType": "string",
          "name": "",
          "type": "string"
        }
      ],
      "stateMutability": "view",
      "type": "function",
      "constant": true
    },
    {
      "inputs": [
        {
          "internalType": "address",
          "name": "user",
          "type": "address"
        }
      ],
      "name": "queryUserTokens",
      "outputs": [
        {
          "components": [
            {
              "internalType": "uint256",
              "name": "tokenId",
              "type": "uint256"
            },
            {
              "internalType": "string",
              "name": "tokenUrl",
              "type": "string"
            }
          ],
          "internalType": "struct PeopleTang.Token[]",
          "name": "",
          "type": "tuple[]"
        }
      ],
      "stateMutability": "view",
      "type": "function",
      "constant": true
    },
    {
      "inputs": [
        {
          "internalType": "address[]",
          "name": "receivers",
          "type": "address[]"
        },
        {
          "internalType": "string[]",
          "name": "uris",
          "type": "string[]"
        }
      ],
      "name": "mintOwner",
      "outputs": [],
      "stateMutability": "nonpayable",
      "type": "function"
    },
    {
      "inputs": [
        {
          "internalType": "uint256",
          "name": "_price",
          "type": "uint256"
        }
      ],
      "name": "changePrice",
      "outputs": [],
      "stateMutability": "nonpayable",
      "type": "function"
    },
    {
      "inputs": [],
      "name": "withdraw",
      "outputs": [],
      "stateMutability": "nonpayable",
      "type": "function"
    }
  ],
  "bytecode": "0x60806040526000600c55612710600d55663baf82d03a0000600e553480156200002757600080fd5b506040516200294d3803806200294d8339810160408190526200004a91620001a9565b818160006200005a8382620002a2565b506001620000698282620002a2565b50505062000086620000806200008e60201b60201c565b62000092565b50506200036e565b3390565b600b80546001600160a01b038381166001600160a01b0319831681179093556040519116919082907f8be0079c531659141344cd1fd0a4f28419497f9722a3daafe3b4186f6b6457e090600090a35050565b634e487b7160e01b600052604160045260246000fd5b600082601f8301126200010c57600080fd5b81516001600160401b0380821115620001295762000129620000e4565b604051601f8301601f19908116603f01168101908282118183101715620001545762000154620000e4565b816040528381526020925086838588010111156200017157600080fd5b600091505b8382101562000195578582018301518183018401529082019062000176565b600093810190920192909252949350505050565b60008060408385031215620001bd57600080fd5b82516001600160401b0380821115620001d557600080fd5b620001e386838701620000fa565b93506020850151915080821115620001fa57600080fd5b506200020985828601620000fa565b9150509250929050565b600181811c908216806200022857607f821691505b6020821081036200024957634e487b7160e01b600052602260045260246000fd5b50919050565b601f8211156200029d57600081815260208120601f850160051c81016020861015620002785750805b601f850160051c820191505b81811015620002995782815560010162000284565b5050505b505050565b81516001600160401b03811115620002be57620002be620000e4565b620002d681620002cf845462000213565b846200024f565b602080601f8311600181146200030e5760008415620002f55750858301515b600019600386901b1c1916600185901b17855562000299565b600085815260208120601f198616915b828110156200033f578886015182559484019460019091019084016200031e565b50858210156200035e5787850151600019600388901b60f8161c191681555b5050505050600190811b01905550565b6125cf806200037e6000396000f3fe60806040526004361061019c5760003560e01c8063715018a6116100ec578063a22cb4651161008a578063c87b56dd11610064578063c87b56dd14610463578063dd644c5114610483578063e985e9c5146104b0578063f2fde38b146104f957600080fd5b8063a22cb46514610403578063a2b40d1914610423578063b88d4fde1461044357600080fd5b80638da5cb5b116100c65780638da5cb5b146103a457806395d89b41146103c25780639ef2d87a146103d7578063a035b1fe146103ed57600080fd5b8063715018a614610359578063852513871461036e5780638698dbd61461038e57600080fd5b80632f745c59116101595780634f6ccce7116101335780634f6ccce7146102e65780635768f271146103065780636352211e1461031957806370a082311461033957600080fd5b80632f745c59146102915780633ccfd60b146102b157806342842e0e146102c657600080fd5b806301ffc9a7146101a157806306fdde03146101d6578063081812fc146101f8578063095ea7b31461023057806318160ddd1461025257806323b872dd14610271575b600080fd5b3480156101ad57600080fd5b506101c16101bc366004611d0c565b610519565b60405190151581526020015b60405180910390f35b3480156101e257600080fd5b506101eb61052a565b6040516101cd9190611d79565b34801561020457600080fd5b50610218610213366004611d8c565b6105bc565b6040516001600160a01b0390911681526020016101cd565b34801561023c57600080fd5b5061025061024b366004611dc1565b6105e3565b005b34801561025e57600080fd5b506009545b6040519081526020016101cd565b34801561027d57600080fd5b5061025061028c366004611deb565b6106fd565b34801561029d57600080fd5b506102636102ac366004611dc1565b61072e565b3480156102bd57600080fd5b506102506107c4565b3480156102d257600080fd5b506102506102e1366004611deb565b610839565b3480156102f257600080fd5b50610263610301366004611d8c565b610854565b610250610314366004611e73565b6108e7565b34801561032557600080fd5b50610218610334366004611d8c565b6109da565b34801561034557600080fd5b50610263610354366004611eb5565b610a3a565b34801561036557600080fd5b50610250610ac0565b34801561037a57600080fd5b50610250610389366004611ed0565b610ad4565b34801561039a57600080fd5b50610263600c5481565b3480156103b057600080fd5b50600b546001600160a01b0316610218565b3480156103ce57600080fd5b506101eb610c27565b3480156103e357600080fd5b50610263600d5481565b3480156103f957600080fd5b50610263600e5481565b34801561040f57600080fd5b5061025061041e366004611f3c565b610c36565b34801561042f57600080fd5b5061025061043e366004611d8c565b610c45565b34801561044f57600080fd5b5061025061045e366004611f8e565b610c82565b34801561046f57600080fd5b506101eb61047e366004611d8c565b610cba565b34801561048f57600080fd5b506104a361049e366004611eb5565b610cc5565b6040516101cd919061206a565b3480156104bc57600080fd5b506101c16104cb3660046120de565b6001600160a01b03918216600090815260056020908152604080832093909416825291909152205460ff1690565b34801561050557600080fd5b50610250610514366004611eb5565b610db7565b600061052482610e30565b92915050565b60606000805461053990612111565b80601f016020809104026020016040519081016040528092919081815260200182805461056590612111565b80156105b25780601f10610587576101008083540402835291602001916105b2565b820191906000526020600020905b81548152906001019060200180831161059557829003601f168201915b5050505050905090565b60006105c782610e55565b506000908152600460205260409020546001600160a01b031690565b60006105ee826109da565b9050806001600160a01b0316836001600160a01b0316036106605760405162461bcd60e51b815260206004820152602160248201527f4552433732313a20617070726f76616c20746f2063757272656e74206f776e656044820152603960f91b60648201526084015b60405180910390fd5b336001600160a01b038216148061067c575061067c81336104cb565b6106ee5760405162461bcd60e51b815260206004820152603d60248201527f4552433732313a20617070726f76652063616c6c6572206973206e6f7420746f60448201527f6b656e206f776e6572206f7220617070726f76656420666f7220616c6c0000006064820152608401610657565b6106f88383610eb4565b505050565b6107073382610f22565b6107235760405162461bcd60e51b81526004016106579061214b565b6106f8838383610fa1565b600061073983610a3a565b821061079b5760405162461bcd60e51b815260206004820152602b60248201527f455243373231456e756d657261626c653a206f776e657220696e646578206f7560448201526a74206f6620626f756e647360a81b6064820152608401610657565b506001600160a01b03919091166000908152600760209081526040808320938352929052205490565b6107cc611112565b6040514790339082156108fc029083906000818181858888f193505050501580156107fb573d6000803e3d6000fd5b5060408051338152602081018390527f884edad9ce6fa2440d8a54cc123490eb96d2768479d49ff9c7366125a942436491015b60405180910390a150565b6106f883838360405180602001604052806000815250610c82565b600061085f60095490565b82106108c25760405162461bcd60e51b815260206004820152602c60248201527f455243373231456e756d657261626c653a20676c6f62616c20696e646578206f60448201526b7574206f6620626f756e647360a01b6064820152608401610657565b600982815481106108d5576108d5612198565b90600052602060002001549050919050565b600c546108f59082906121c4565b600d5410156109465760405162461bcd60e51b815260206004820152601f60248201527f496e73756666696369656e742072656d61696e696e67207175616e74697479006044820152606401610657565b600e543410156109905760405162461bcd60e51b815260206004820152601560248201527424b739bab33334b1b4b2b73a103830bcb6b2b73a1760591b6044820152606401610657565b60005b818110156106f8576109c8338484848181106109b1576109b1612198565b90506020028101906109c391906121d7565b61116c565b806109d28161221e565b915050610993565b6000818152600260205260408120546001600160a01b0316806105245760405162461bcd60e51b8152602060048201526018602482015277115490cdcc8c4e881a5b9d985b1a59081d1bdad95b88125160421b6044820152606401610657565b60006001600160a01b038216610aa45760405162461bcd60e51b815260206004820152602960248201527f4552433732313a2061646472657373207a65726f206973206e6f7420612076616044820152683634b21037bbb732b960b91b6064820152608401610657565b506001600160a01b031660009081526003602052604090205490565b610ac8611112565b610ad260006111cc565b565b610adc611112565b828114610b2b5760405162461bcd60e51b815260206004820152601860248201527f5265636569766572732d75726973206e6f74206d6174636800000000000000006044820152606401610657565b600c54610b399082906121c4565b600d541015610b8a5760405162461bcd60e51b815260206004820152601f60248201527f496e73756666696369656e742072656d61696e696e67207175616e74697479006044820152606401610657565b7f661ac3ac15dee95950afb08351c73b1ba82496841bc85167d583b30fa0a34e4384848484604051610bbf9493929190612260565b60405180910390a160005b83811015610c2057610c0e858583818110610be757610be7612198565b9050602002016020810190610bfc9190611eb5565b8484848181106109b1576109b1612198565b80610c188161221e565b915050610bca565b5050505050565b60606001805461053990612111565b610c4133838361121e565b5050565b610c4d611112565b600e8190556040518181527ffb92488ba7c255b32158331b4dd67ae708a8761b850ca51d1bbf57c177d35f899060200161082e565b610c8c3383610f22565b610ca85760405162461bcd60e51b81526004016106579061214b565b610cb4848484846112ec565b50505050565b60606105248261131f565b60606000610cd283610a3a565b905060008167ffffffffffffffff811115610cef57610cef611f78565b604051908082528060200260200182016040528015610d3557816020015b604080518082019091526000815260606020820152815260200190600190039081610d0d5790505b50905060005b8151811015610daf576000610d50868361072e565b905080838381518110610d6557610d65612198565b602090810291909101015152610d7a81610cba565b838381518110610d8c57610d8c612198565b602002602001015160200181905250508080610da79061221e565b915050610d3b565b509392505050565b610dbf611112565b6001600160a01b038116610e245760405162461bcd60e51b815260206004820152602660248201527f4f776e61626c653a206e6577206f776e657220697320746865207a65726f206160448201526564647265737360d01b6064820152608401610657565b610e2d816111cc565b50565b60006001600160e01b0319821663780e9d6360e01b1480610524575061052482611427565b6000818152600260205260409020546001600160a01b0316610e2d5760405162461bcd60e51b8152602060048201526018602482015277115490cdcc8c4e881a5b9d985b1a59081d1bdad95b88125160421b6044820152606401610657565b600081815260046020526040902080546001600160a01b0319166001600160a01b0384169081179091558190610ee9826109da565b6001600160a01b03167f8c5be1e5ebec7d5bd14f71427d1e84f3dd0314c0f7b2291e5b200ac8c7c3b92560405160405180910390a45050565b600080610f2e836109da565b9050806001600160a01b0316846001600160a01b03161480610f7557506001600160a01b0380821660009081526005602090815260408083209388168352929052205460ff165b80610f995750836001600160a01b0316610f8e846105bc565b6001600160a01b0316145b949350505050565b826001600160a01b0316610fb4826109da565b6001600160a01b031614610fda5760405162461bcd60e51b815260040161065790612342565b6001600160a01b03821661103c5760405162461bcd60e51b8152602060048201526024808201527f4552433732313a207472616e7366657220746f20746865207a65726f206164646044820152637265737360e01b6064820152608401610657565b611049838383600161144c565b826001600160a01b031661105c826109da565b6001600160a01b0316146110825760405162461bcd60e51b815260040161065790612342565b600081815260046020908152604080832080546001600160a01b03199081169091556001600160a01b0387811680865260038552838620805460001901905590871680865283862080546001019055868652600290945282852080549092168417909155905184937fddf252ad1be2c89b69c2b068fc378daa952ba7f163c4a11628f55a4df523b3ef91a4505050565b600b546001600160a01b03163314610ad25760405162461bcd60e51b815260206004820181905260248201527f4f776e61626c653a2063616c6c6572206973206e6f7420746865206f776e65726044820152606401610657565b600c5461117a9060016121c4565b600c81905561118a908490611458565b6106f8600c5483838080601f01602080910402602001604051908101604052809392919081815260200183838082843760009201919091525061147292505050565b600b80546001600160a01b038381166001600160a01b0319831681179093556040519116919082907f8be0079c531659141344cd1fd0a4f28419497f9722a3daafe3b4186f6b6457e090600090a35050565b816001600160a01b0316836001600160a01b03160361127f5760405162461bcd60e51b815260206004820152601960248201527f4552433732313a20617070726f766520746f2063616c6c6572000000000000006044820152606401610657565b6001600160a01b03838116600081815260056020908152604080832094871680845294825291829020805460ff191686151590811790915591519182527f17307eab39ab6107e8899845ad3d59bd9653f200f220920489ca2b5937696c31910160405180910390a3505050565b6112f7848484610fa1565b6113038484848461153d565b610cb45760405162461bcd60e51b815260040161065790612387565b606061132a82610e55565b6000828152600660205260408120805461134390612111565b80601f016020809104026020016040519081016040528092919081815260200182805461136f90612111565b80156113bc5780601f10611391576101008083540402835291602001916113bc565b820191906000526020600020905b81548152906001019060200180831161139f57829003601f168201915b5050505050905060006113da60408051602081019091526000815290565b905080516000036113ec575092915050565b81511561141e5780826040516020016114069291906123d9565b60405160208183030381529060405292505050919050565b610f998461163e565b60006001600160e01b03198216632483248360e11b14806105245750610524826116b2565b610cb484848484611702565b610c4182826040518060200160405280600081525061182f565b6000828152600260205260409020546001600160a01b03166114ed5760405162461bcd60e51b815260206004820152602e60248201527f45524337323155524953746f726167653a2055524920736574206f66206e6f6e60448201526d32bc34b9ba32b73a103a37b5b2b760911b6064820152608401610657565b60008281526006602052604090206115058282612456565b506040518281527ff8e1a15aba9398e019f0b49df1a4fde98ee17ae345cb5f6b5e2c27f5033e8ce79060200160405180910390a15050565b60006001600160a01b0384163b1561163357604051630a85bd0160e11b81526001600160a01b0385169063150b7a0290611581903390899088908890600401612516565b6020604051808303816000875af19250505080156115bc575060408051601f3d908101601f191682019092526115b991810190612553565b60015b611619573d8080156115ea576040519150601f19603f3d011682016040523d82523d6000602084013e6115ef565b606091505b5080516000036116115760405162461bcd60e51b815260040161065790612387565b805181602001fd5b6001600160e01b031916630a85bd0160e11b149050610f99565b506001949350505050565b606061164982610e55565b600061166060408051602081019091526000815290565b9050600081511161168057604051806020016040528060008152506116ab565b8061168a84611862565b60405160200161169b9291906123d9565b6040516020818303038152906040525b9392505050565b60006001600160e01b031982166380ac58cd60e01b14806116e357506001600160e01b03198216635b5e139f60e01b145b8061052457506301ffc9a760e01b6001600160e01b0319831614610524565b60018111156117715760405162461bcd60e51b815260206004820152603560248201527f455243373231456e756d657261626c653a20636f6e7365637574697665207472604482015274185b9cd9995c9cc81b9bdd081cdd5c1c1bdc9d1959605a1b6064820152608401610657565b816001600160a01b0385166117cd576117c881600980546000838152600a60205260408120829055600182018355919091527f6e1540171b6c0c960b71a7020d9f60077f6af931a8bbf590da0223dacf75c7af0155565b6117f0565b836001600160a01b0316856001600160a01b0316146117f0576117f085826118f5565b6001600160a01b03841661180c5761180781611992565b610c20565b846001600160a01b0316846001600160a01b031614610c2057610c208482611a41565b6118398383611a85565b611846600084848461153d565b6106f85760405162461bcd60e51b815260040161065790612387565b6060600061186f83611c1e565b600101905060008167ffffffffffffffff81111561188f5761188f611f78565b6040519080825280601f01601f1916602001820160405280156118b9576020820181803683370190505b5090508181016020015b600019016f181899199a1a9b1b9c1cb0b131b232b360811b600a86061a8153600a85049450846118c357509392505050565b6000600161190284610a3a565b61190c9190612570565b60008381526008602052604090205490915080821461195f576001600160a01b03841660009081526007602090815260408083208584528252808320548484528184208190558352600890915290208190555b5060009182526008602090815260408084208490556001600160a01b039094168352600781528383209183525290812055565b6009546000906119a490600190612570565b6000838152600a6020526040812054600980549394509092849081106119cc576119cc612198565b9060005260206000200154905080600983815481106119ed576119ed612198565b6000918252602080832090910192909255828152600a90915260408082208490558582528120556009805480611a2557611a25612583565b6001900381819060005260206000200160009055905550505050565b6000611a4c83610a3a565b6001600160a01b039093166000908152600760209081526040808320868452825280832085905593825260089052919091209190915550565b6001600160a01b038216611adb5760405162461bcd60e51b815260206004820181905260248201527f4552433732313a206d696e7420746f20746865207a65726f20616464726573736044820152606401610657565b6000818152600260205260409020546001600160a01b031615611b405760405162461bcd60e51b815260206004820152601c60248201527f4552433732313a20746f6b656e20616c7265616479206d696e746564000000006044820152606401610657565b611b4e60008383600161144c565b6000818152600260205260409020546001600160a01b031615611bb35760405162461bcd60e51b815260206004820152601c60248201527f4552433732313a20746f6b656e20616c7265616479206d696e746564000000006044820152606401610657565b6001600160a01b038216600081815260036020908152604080832080546001019055848352600290915280822080546001600160a01b0319168417905551839291907fddf252ad1be2c89b69c2b068fc378daa952ba7f163c4a11628f55a4df523b3ef908290a45050565b60008072184f03e93ff9f4daa797ed6e38ed64bf6a1f0160401b8310611c5d5772184f03e93ff9f4daa797ed6e38ed64bf6a1f0160401b830492506040015b6d04ee2d6d415b85acef81000000008310611c89576d04ee2d6d415b85acef8100000000830492506020015b662386f26fc100008310611ca757662386f26fc10000830492506010015b6305f5e1008310611cbf576305f5e100830492506008015b6127108310611cd357612710830492506004015b60648310611ce5576064830492506002015b600a83106105245760010192915050565b6001600160e01b031981168114610e2d57600080fd5b600060208284031215611d1e57600080fd5b81356116ab81611cf6565b60005b83811015611d44578181015183820152602001611d2c565b50506000910152565b60008151808452611d65816020860160208601611d29565b601f01601f19169290920160200192915050565b6020815260006116ab6020830184611d4d565b600060208284031215611d9e57600080fd5b5035919050565b80356001600160a01b0381168114611dbc57600080fd5b919050565b60008060408385031215611dd457600080fd5b611ddd83611da5565b946020939093013593505050565b600080600060608486031215611e0057600080fd5b611e0984611da5565b9250611e1760208501611da5565b9150604084013590509250925092565b60008083601f840112611e3957600080fd5b50813567ffffffffffffffff811115611e5157600080fd5b6020830191508360208260051b8501011115611e6c57600080fd5b9250929050565b60008060208385031215611e8657600080fd5b823567ffffffffffffffff811115611e9d57600080fd5b611ea985828601611e27565b90969095509350505050565b600060208284031215611ec757600080fd5b6116ab82611da5565b60008060008060408587031215611ee657600080fd5b843567ffffffffffffffff80821115611efe57600080fd5b611f0a88838901611e27565b90965094506020870135915080821115611f2357600080fd5b50611f3087828801611e27565b95989497509550505050565b60008060408385031215611f4f57600080fd5b611f5883611da5565b915060208301358015158114611f6d57600080fd5b809150509250929050565b634e487b7160e01b600052604160045260246000fd5b60008060008060808587031215611fa457600080fd5b611fad85611da5565b9350611fbb60208601611da5565b925060408501359150606085013567ffffffffffffffff80821115611fdf57600080fd5b818701915087601f830112611ff357600080fd5b81358181111561200557612005611f78565b604051601f8201601f19908116603f0116810190838211818310171561202d5761202d611f78565b816040528281528a602084870101111561204657600080fd5b82602086016020830137600060208483010152809550505050505092959194509250565b60006020808301818452808551808352604092508286019150828160051b87010184880160005b838110156120d057888303603f190185528151805184528701518784018790526120bd87850182611d4d565b9588019593505090860190600101612091565b509098975050505050505050565b600080604083850312156120f157600080fd5b6120fa83611da5565b915061210860208401611da5565b90509250929050565b600181811c9082168061212557607f821691505b60208210810361214557634e487b7160e01b600052602260045260246000fd5b50919050565b6020808252602d908201527f4552433732313a2063616c6c6572206973206e6f7420746f6b656e206f776e6560408201526c1c881bdc88185c1c1c9bdd9959609a1b606082015260800190565b634e487b7160e01b600052603260045260246000fd5b634e487b7160e01b600052601160045260246000fd5b80820180821115610524576105246121ae565b6000808335601e198436030181126121ee57600080fd5b83018035915067ffffffffffffffff82111561220957600080fd5b602001915036819003821315611e6c57600080fd5b600060018201612230576122306121ae565b5060010190565b81835281816020850137506000828201602090810191909152601f909101601f19169091010190565b6040808252810184905260008560608301825b878110156122a1576001600160a01b0361228c84611da5565b16825260209283019290910190600101612273565b506020915083810382850152808582528282019050828660051b8301018760005b8881101561233257848303601f190184528135368b9003601e190181126122e857600080fd5b8a01868101903567ffffffffffffffff81111561230457600080fd5b80360382131561231357600080fd5b61231e858284612237565b9588019594505050908501906001016122c2565b50909a9950505050505050505050565b60208082526025908201527f4552433732313a207472616e736665722066726f6d20696e636f72726563742060408201526437bbb732b960d91b606082015260800190565b60208082526032908201527f4552433732313a207472616e7366657220746f206e6f6e20455243373231526560408201527131b2b4bb32b91034b6b83632b6b2b73a32b960711b606082015260800190565b600083516123eb818460208801611d29565b8351908301906123ff818360208801611d29565b01949350505050565b601f8211156106f857600081815260208120601f850160051c8101602086101561242f5750805b601f850160051c820191505b8181101561244e5782815560010161243b565b505050505050565b815167ffffffffffffffff81111561247057612470611f78565b6124848161247e8454612111565b84612408565b602080601f8311600181146124b957600084156124a15750858301515b600019600386901b1c1916600185901b17855561244e565b600085815260208120601f198616915b828110156124e8578886015182559484019460019091019084016124c9565b50858210156125065787850151600019600388901b60f8161c191681555b5050505050600190811b01905550565b6001600160a01b038581168252841660208201526040810183905260806060820181905260009061254990830184611d4d565b9695505050505050565b60006020828403121561256557600080fd5b81516116ab81611cf6565b81810381811115610524576105246121ae565b634e487b7160e01b600052603160045260246000fdfea2646970667358221220030c186a27b718715e3563dd2740b0c66d5235b614ec9f92ae944d9f1b804c3a64736f6c63430008140033",
  "immutableReferences": {},
  "source": "// SPDX-License-Identifier: GPL-3.0\r\n\r\nimport '@openzeppelin/contracts/token/ERC721/extensions/ERC721URIStorage.sol';\r\nimport '@openzeppelin/contracts/token/ERC721/extensions/ERC721Enumerable.sol';\r\nimport '@openzeppelin/contracts/access/Ownable.sol';\r\n\r\npragma solidity 0.8.20;\r\n\r\ncontract PeopleTang is ERC721URIStorage, ERC721Enumerable, Ownable {\r\n  uint256 public _CUR_TOKENID_ = 0;\r\n  /**  */\r\n  uint256 public maxCount = 10000;\r\n  /**  */\r\n  uint256 public price = 0.0168 ether;\r\n\r\n  constructor(string memory _name, string memory _symbol) ERC721(_name, _symbol) {}\r\n\r\n  // ============ Events ============\r\n  event ChangePrice(uint256 newPrice);\r\n  event Withdraw(address account, uint256 amount);\r\n  event Mint(address account, string uri);\r\n  event MintOwner(address[] receivers, string[] uris);\r\n\r\n  // ============= MINT =============\r\n  function _mint_comm(address to, string calldata uri) internal virtual {\r\n    _CUR_TOKENID_ = _CUR_TOKENID_ + 1; //1 \r\n    _safeMint(to, _CUR_TOKENID_);\r\n    _setTokenURI(_CUR_TOKENID_, uri);\r\n  }\r\n\r\n  /**  */\r\n  function mint(string[] calldata uris) external payable {\r\n    require(maxCount >= _CUR_TOKENID_ + uris.length, 'Insufficient remaining quantity');\r\n    require(msg.value >= price, 'Insufficient payment.');\r\n    for (uint256 i = 0; i < uris.length; i++) {\r\n      _mint_comm(msg.sender, uris[i]);\r\n    }\r\n  }\r\n\r\n  function _beforeTokenTransfer(\r\n    address from,\r\n    address to,\r\n    uint256 tokenId,\r\n    uint256 batchSize\r\n  ) internal override(ERC721, ERC721Enumerable) {\r\n    super._beforeTokenTransfer(from, to, tokenId, batchSize);\r\n  }\r\n\r\n  function _burn(uint256 tokenId) internal override(ERC721, ERC721URIStorage) {\r\n    super._burn(tokenId);\r\n  }\r\n\r\n  function supportsInterface(\r\n    bytes4 interfaceId\r\n  ) public view override(ERC721URIStorage, ERC721Enumerable) returns (bool) {\r\n    return super.supportsInterface(interfaceId);\r\n  }\r\n\r\n  function tokenURI(uint256 tokenId) public view override(ERC721, ERC721URIStorage) returns (string memory) {\r\n    return ERC721URIStorage.tokenURI(tokenId);\r\n  }\r\n\r\n  struct Token {\r\n    uint tokenId;\r\n    string tokenUrl;\r\n  }\r\n\r\n  function queryUserTokens(address user) public view returns (Token[] memory) {\r\n    uint balance = balanceOf(user);\r\n\r\n    Token[] memory retArray = new Token[](balance);\r\n    for (uint i = 0; i < retArray.length; i++) {\r\n      uint tokenId = tokenOfOwnerByIndex(user, i);\r\n      retArray[i].tokenId = tokenId;\r\n      retArray[i].tokenUrl = tokenURI(tokenId);\r\n    }\r\n    return retArray;\r\n  }\r\n\r\n  // ============ Ownable =============\r\n  function mintOwner(address[] calldata receivers, string[] calldata uris) external onlyOwner {\r\n    require(receivers.length == uris.length, 'Receivers-uris not match');\r\n    require(maxCount >= _CUR_TOKENID_ + uris.length, 'Insufficient remaining quantity');\r\n    emit MintOwner(receivers, uris);\r\n\r\n    for (uint256 i = 0; i < receivers.length; i++) {\r\n      _mint_comm(receivers[i], uris[i]);\r\n    }\r\n  }\r\n\r\n  function changePrice(uint256 _price) external onlyOwner {\r\n    price = _price;\r\n    emit ChangePrice(_price);\r\n  }\r\n\r\n  function withdraw() external onlyOwner {\r\n    uint256 amount = address(this).balance;\r\n    payable(msg.sender).transfer(amount);\r\n    emit Withdraw(msg.sender, amount);\r\n  }\r\n}\r\n",
  "sourcePath": "E:\\git_2023\\PeopleTang\\truffle\\contracts\\PeopleTang.sol",
  "compiler": {
    "name": "solc",
    "version": "0.8.20+commit.a1b79de6.Emscripten.clang"
  },
  "schemaVersion": "3.4.13",
  "updatedAt": "2023-06-05T07:38:41.151Z",
  "networkType": "ethereum",
  "devdoc": {
    "events": {
      "Approval(address,address,uint256)": {
        "details": "Emitted when `owner` enables `approved` to manage the `tokenId` token."
      },
      "ApprovalForAll(address,address,bool)": {
        "details": "Emitted when `owner` enables or disables (`approved`) `operator` to manage all of its assets."
      },
      "BatchMetadataUpdate(uint256,uint256)": {
        "details": "This event emits when the metadata of a range of tokens is changed. So that the third-party platforms such as NFT market could timely update the images and related attributes of the NFTs."
      },
      "MetadataUpdate(uint256)": {
        "details": "This event emits when the metadata of a token is changed. So that the third-party platforms such as NFT market could timely update the images and related attributes of the NFT."
      },
      "Transfer(address,address,uint256)": {
        "details": "Emitted when `tokenId` token is transferred from `from` to `to`."
      }
    },
    "kind": "dev",
    "methods": {
      "approve(address,uint256)": {
        "details": "See {IERC721-approve}."
      },
      "balanceOf(address)": {
        "details": "See {IERC721-balanceOf}."
      },
      "getApproved(uint256)": {
        "details": "See {IERC721-getApproved}."
      },
      "isApprovedForAll(address,address)": {
        "details": "See {IERC721-isApprovedForAll}."
      },
      "name()": {
        "details": "See {IERC721Metadata-name}."
      },
      "owner()": {
        "details": "Returns the address of the current owner."
      },
      "ownerOf(uint256)": {
        "details": "See {IERC721-ownerOf}."
      },
      "renounceOwnership()": {
        "details": "Leaves the contract without owner. It will not be possible to call `onlyOwner` functions. Can only be called by the current owner. NOTE: Renouncing ownership will leave the contract without an owner, thereby disabling any functionality that is only available to the owner."
      },
      "safeTransferFrom(address,address,uint256)": {
        "details": "See {IERC721-safeTransferFrom}."
      },
      "safeTransferFrom(address,address,uint256,bytes)": {
        "details": "See {IERC721-safeTransferFrom}."
      },
      "setApprovalForAll(address,bool)": {
        "details": "See {IERC721-setApprovalForAll}."
      },
      "symbol()": {
        "details": "See {IERC721Metadata-symbol}."
      },
      "tokenByIndex(uint256)": {
        "details": "See {IERC721Enumerable-tokenByIndex}."
      },
      "tokenOfOwnerByIndex(address,uint256)": {
        "details": "See {IERC721Enumerable-tokenOfOwnerByIndex}."
      },
      "totalSupply()": {
        "details": "See {IERC721Enumerable-totalSupply}."
      },
      "transferFrom(address,address,uint256)": {
        "details": "See {IERC721-transferFrom}."
      },
      "transferOwnership(address)": {
        "details": "Transfers ownership of the contract to a new account (`newOwner`). Can only be called by the current owner."
      }
    },
    "version": 1
  },
  "userdoc": {
    "kind": "user",
    "methods": {
      "maxCount()": {
        "notice": " "
      },
      "mint(string[])": {
        "notice": " "
      },
      "price()": {
        "notice": " "
      }
    },
    "version": 1
  }
}