{
  "contractName": "PeopleTang",
  "abi": [
    {
      "inputs": [
        {
          "internalType": "string",
          "name": "_name",
          "type": "string"
        },
        {
          "internalType": "string",
          "name": "_symbol",
          "type": "string"
        }
      ],
      "stateMutability": "nonpayable",
      "type": "constructor"
    },
    {
      "anonymous": false,
      "inputs": [
        {
          "indexed": true,
          "internalType": "address",
          "name": "owner",
          "type": "address"
        },
        {
          "indexed": true,
          "internalType": "address",
          "name": "approved",
          "type": "address"
        },
        {
          "indexed": true,
          "internalType": "uint256",
          "name": "tokenId",
          "type": "uint256"
        }
      ],
      "name": "Approval",
      "type": "event"
    },
    {
      "anonymous": false,
      "inputs": [
        {
          "indexed": true,
          "internalType": "address",
          "name": "owner",
          "type": "address"
        },
        {
          "indexed": true,
          "internalType": "address",
          "name": "operator",
          "type": "address"
        },
        {
          "indexed": false,
          "internalType": "bool",
          "name": "approved",
          "type": "bool"
        }
      ],
      "name": "ApprovalForAll",
      "type": "event"
    },
    {
      "anonymous": false,
      "inputs": [
        {
          "indexed": false,
          "internalType": "uint256",
          "name": "_fromTokenId",
          "type": "uint256"
        },
        {
          "indexed": false,
          "internalType": "uint256",
          "name": "_toTokenId",
          "type": "uint256"
        }
      ],
      "name": "BatchMetadataUpdate",
      "type": "event"
    },
    {
      "anonymous": false,
      "inputs": [
        {
          "indexed": false,
          "internalType": "uint256",
          "name": "newPrice",
          "type": "uint256"
        }
      ],
      "name": "ChangePrice",
      "type": "event"
    },
    {
      "anonymous": false,
      "inputs": [
        {
          "indexed": false,
          "internalType": "uint256",
          "name": "_tokenId",
          "type": "uint256"
        }
      ],
      "name": "MetadataUpdate",
      "type": "event"
    },
    {
      "anonymous": false,
      "inputs": [
        {
          "indexed": false,
          "internalType": "address",
          "name": "account",
          "type": "address"
        },
        {
          "indexed": false,
          "internalType": "string",
          "name": "uri",
          "type": "string"
        }
      ],
      "name": "Mint",
      "type": "event"
    },
    {
      "anonymous": false,
      "inputs": [
        {
          "indexed": false,
          "internalType": "address[]",
          "name": "receivers",
          "type": "address[]"
        },
        {
          "indexed": false,
          "internalType": "string[]",
          "name": "uris",
          "type": "string[]"
        }
      ],
      "name": "MintOwner",
      "type": "event"
    },
    {
      "anonymous": false,
      "inputs": [
        {
          "indexed": true,
          "internalType": "address",
          "name": "previousOwner",
          "type": "address"
        },
        {
          "indexed": true,
          "internalType": "address",
          "name": "newOwner",
          "type": "address"
        }
      ],
      "name": "OwnershipTransferred",
      "type": "event"
    },
    {
      "anonymous": false,
      "inputs": [
        {
          "indexed": true,
          "internalType": "address",
          "name": "from",
          "type": "address"
        },
        {
          "indexed": true,
          "internalType": "address",
          "name": "to",
          "type": "address"
        },
        {
          "indexed": true,
          "internalType": "uint256",
          "name": "tokenId",
          "type": "uint256"
        }
      ],
      "name": "Transfer",
      "type": "event"
    },
    {
      "anonymous": false,
      "inputs": [
        {
          "indexed": false,
          "internalType": "address",
          "name": "account",
          "type": "address"
        },
        {
          "indexed": false,
          "internalType": "uint256",
          "name": "amount",
          "type": "uint256"
        }
      ],
      "name": "Withdraw",
      "type": "event"
    },
    {
      "inputs": [],
      "name": "_CUR_TOKENID_",
      "outputs": [
        {
          "internalType": "uint256",
          "name": "",
          "type": "uint256"
        }
      ],
      "stateMutability": "view",
      "type": "function",
      "constant": true
    },
    {
      "inputs": [
        {
          "internalType": "address",
          "name": "to",
          "type": "address"
        },
        {
          "internalType": "uint256",
          "name": "tokenId",
          "type": "uint256"
        }
      ],
      "name": "approve",
      "outputs": [],
      "stateMutability": "nonpayable",
      "type": "function"
    },
    {
      "inputs": [
        {
          "internalType": "address",
          "name": "owner",
          "type": "address"
        }
      ],
      "name": "balanceOf",
      "outputs": [
        {
          "internalType": "uint256",
          "name": "",
          "type": "uint256"
        }
      ],
      "stateMutability": "view",
      "type": "function",
      "constant": true
    },
    {
      "inputs": [
        {
          "internalType": "uint256",
          "name": "tokenId",
          "type": "uint256"
        }
      ],
      "name": "getApproved",
      "outputs": [
        {
          "internalType": "address",
          "name": "",
          "type": "address"
        }
      ],
      "stateMutability": "view",
      "type": "function",
      "constant": true
    },
    {
      "inputs": [
        {
          "internalType": "address",
          "name": "owner",
          "type": "address"
        },
        {
          "internalType": "address",
          "name": "operator",
          "type": "address"
        }
      ],
      "name": "isApprovedForAll",
      "outputs": [
        {
          "internalType": "bool",
          "name": "",
          "type": "bool"
        }
      ],
      "stateMutability": "view",
      "type": "function",
      "constant": true
    },
    {
      "inputs": [],
      "name": "name",
      "outputs": [
        {
          "internalType": "string",
          "name": "",
          "type": "string"
        }
      ],
      "stateMutability": "view",
      "type": "function",
      "constant": true
    },
    {
      "inputs": [],
      "name": "owner",
      "outputs": [
        {
          "internalType": "address",
          "name": "",
          "type": "address"
        }
      ],
      "stateMutability": "view",
      "type": "function",
      "constant": true
    },
    {
      "inputs": [
        {
          "internalType": "uint256",
          "name": "tokenId",
          "type": "uint256"
        }
      ],
      "name": "ownerOf",
      "outputs": [
        {
          "internalType": "address",
          "name": "",
          "type": "address"
        }
      ],
      "stateMutability": "view",
      "type": "function",
      "constant": true
    },
    {
      "inputs": [],
      "name": "price",
      "outputs": [
        {
          "internalType": "uint256",
          "name": "",
          "type": "uint256"
        }
      ],
      "stateMutability": "view",
      "type": "function",
      "constant": true
    },
    {
      "inputs": [],
      "name": "remainingCount",
      "outputs": [
        {
          "internalType": "uint256",
          "name": "",
          "type": "uint256"
        }
      ],
      "stateMutability": "view",
      "type": "function",
      "constant": true
    },
    {
      "inputs": [],
      "name": "renounceOwnership",
      "outputs": [],
      "stateMutability": "nonpayable",
      "type": "function"
    },
    {
      "inputs": [
        {
          "internalType": "address",
          "name": "from",
          "type": "address"
        },
        {
          "internalType": "address",
          "name": "to",
          "type": "address"
        },
        {
          "internalType": "uint256",
          "name": "tokenId",
          "type": "uint256"
        }
      ],
      "name": "safeTransferFrom",
      "outputs": [],
      "stateMutability": "nonpayable",
      "type": "function"
    },
    {
      "inputs": [
        {
          "internalType": "address",
          "name": "from",
          "type": "address"
        },
        {
          "internalType": "address",
          "name": "to",
          "type": "address"
        },
        {
          "internalType": "uint256",
          "name": "tokenId",
          "type": "uint256"
        },
        {
          "internalType": "bytes",
          "name": "data",
          "type": "bytes"
        }
      ],
      "name": "safeTransferFrom",
      "outputs": [],
      "stateMutability": "nonpayable",
      "type": "function"
    },
    {
      "inputs": [
        {
          "internalType": "address",
          "name": "operator",
          "type": "address"
        },
        {
          "internalType": "bool",
          "name": "approved",
          "type": "bool"
        }
      ],
      "name": "setApprovalForAll",
      "outputs": [],
      "stateMutability": "nonpayable",
      "type": "function"
    },
    {
      "inputs": [
        {
          "internalType": "bytes4",
          "name": "interfaceId",
          "type": "bytes4"
        }
      ],
      "name": "supportsInterface",
      "outputs": [
        {
          "internalType": "bool",
          "name": "",
          "type": "bool"
        }
      ],
      "stateMutability": "view",
      "type": "function",
      "constant": true
    },
    {
      "inputs": [],
      "name": "symbol",
      "outputs": [
        {
          "internalType": "string",
          "name": "",
          "type": "string"
        }
      ],
      "stateMutability": "view",
      "type": "function",
      "constant": true
    },
    {
      "inputs": [
        {
          "internalType": "uint256",
          "name": "tokenId",
          "type": "uint256"
        }
      ],
      "name": "tokenURI",
      "outputs": [
        {
          "internalType": "string",
          "name": "",
          "type": "string"
        }
      ],
      "stateMutability": "view",
      "type": "function",
      "constant": true
    },
    {
      "inputs": [
        {
          "internalType": "address",
          "name": "from",
          "type": "address"
        },
        {
          "internalType": "address",
          "name": "to",
          "type": "address"
        },
        {
          "internalType": "uint256",
          "name": "tokenId",
          "type": "uint256"
        }
      ],
      "name": "transferFrom",
      "outputs": [],
      "stateMutability": "nonpayable",
      "type": "function"
    },
    {
      "inputs": [
        {
          "internalType": "address",
          "name": "newOwner",
          "type": "address"
        }
      ],
      "name": "transferOwnership",
      "outputs": [],
      "stateMutability": "nonpayable",
      "type": "function"
    },
    {
      "inputs": [
        {
          "internalType": "string",
          "name": "uri",
          "type": "string"
        }
      ],
      "name": "mint",
      "outputs": [],
      "stateMutability": "payable",
      "type": "function",
      "payable": true
    },
    {
      "inputs": [
        {
          "internalType": "address[]",
          "name": "receivers",
          "type": "address[]"
        },
        {
          "internalType": "string[]",
          "name": "uris",
          "type": "string[]"
        }
      ],
      "name": "mintOwner",
      "outputs": [],
      "stateMutability": "nonpayable",
      "type": "function"
    },
    {
      "inputs": [
        {
          "internalType": "uint256",
          "name": "_price",
          "type": "uint256"
        }
      ],
      "name": "changePrice",
      "outputs": [],
      "stateMutability": "nonpayable",
      "type": "function"
    },
    {
      "inputs": [],
      "name": "withdraw",
      "outputs": [],
      "stateMutability": "nonpayable",
      "type": "function"
    }
  ],
  "bytecode": "0x60806040526001600855612710600955663baf82d03a0000600a553480156200002757600080fd5b50604051620022ef380380620022ef8339810160408190526200004a91620001a9565b818160006200005a8382620002a2565b506001620000698282620002a2565b50505062000086620000806200008e60201b60201c565b62000092565b50506200036e565b3390565b600780546001600160a01b038381166001600160a01b0319831681179093556040519116919082907f8be0079c531659141344cd1fd0a4f28419497f9722a3daafe3b4186f6b6457e090600090a35050565b634e487b7160e01b600052604160045260246000fd5b600082601f8301126200010c57600080fd5b81516001600160401b0380821115620001295762000129620000e4565b604051601f8301601f19908116603f01168101908282118183101715620001545762000154620000e4565b816040528381526020925086838588010111156200017157600080fd5b600091505b8382101562000195578582018301518183018401529082019062000176565b600093810190920192909252949350505050565b60008060408385031215620001bd57600080fd5b82516001600160401b0380821115620001d557600080fd5b620001e386838701620000fa565b93506020850151915080821115620001fa57600080fd5b506200020985828601620000fa565b9150509250929050565b600181811c908216806200022857607f821691505b6020821081036200024957634e487b7160e01b600052602260045260246000fd5b50919050565b601f8211156200029d57600081815260208120601f850160051c81016020861015620002785750805b601f850160051c820191505b81811015620002995782815560010162000284565b5050505b505050565b81516001600160401b03811115620002be57620002be620000e4565b620002d681620002cf845462000213565b846200024f565b602080601f8311600181146200030e5760008415620002f55750858301515b600019600386901b1c1916600185901b17855562000299565b600085815260208120601f198616915b828110156200033f578886015182559484019460019091019084016200031e565b50858210156200035e5787850151600019600388901b60f8161c191681555b5050505050600190811b01905550565b611f71806200037e6000396000f3fe6080604052600436106101405760003560e01c80638698dbd6116100b6578063b88d4fde1161006f578063b88d4fde1461036d578063c87b56dd1461038d578063d85d3d27146103ad578063d8753aa5146103c0578063e985e9c5146103d6578063f2fde38b146103f657600080fd5b80638698dbd6146102ce5780638da5cb5b146102e457806395d89b4114610302578063a035b1fe14610317578063a22cb4651461032d578063a2b40d191461034d57600080fd5b80633ccfd60b116101085780633ccfd60b1461021657806342842e0e1461022b5780636352211e1461024b57806370a082311461026b578063715018a61461029957806385251387146102ae57600080fd5b806301ffc9a71461014557806306fdde031461017a578063081812fc1461019c578063095ea7b3146101d457806323b872dd146101f6575b600080fd5b34801561015157600080fd5b506101656101603660046116ed565b610416565b60405190151581526020015b60405180910390f35b34801561018657600080fd5b5061018f610441565b604051610171919061175a565b3480156101a857600080fd5b506101bc6101b736600461176d565b6104d3565b6040516001600160a01b039091168152602001610171565b3480156101e057600080fd5b506101f46101ef3660046117a2565b6104fa565b005b34801561020257600080fd5b506101f46102113660046117cc565b610614565b34801561022257600080fd5b506101f4610645565b34801561023757600080fd5b506101f46102463660046117cc565b6106ba565b34801561025757600080fd5b506101bc61026636600461176d565b6106d5565b34801561027757600080fd5b5061028b610286366004611808565b610735565b604051908152602001610171565b3480156102a557600080fd5b506101f46107bb565b3480156102ba57600080fd5b506101f46102c936600461186f565b6107cf565b3480156102da57600080fd5b5061028b60085481565b3480156102f057600080fd5b506007546001600160a01b03166101bc565b34801561030e57600080fd5b5061018f610939565b34801561032357600080fd5b5061028b600a5481565b34801561033957600080fd5b506101f46103483660046118db565b610948565b34801561035957600080fd5b506101f461036836600461176d565b610957565b34801561037957600080fd5b506101f461038836600461192d565b610994565b34801561039957600080fd5b5061018f6103a836600461176d565b6109cc565b6101f46103bb366004611a09565b610adc565b3480156103cc57600080fd5b5061028b60095481565b3480156103e257600080fd5b506101656103f1366004611a7b565b610b70565b34801561040257600080fd5b506101f4610411366004611808565b610b9e565b60006001600160e01b03198216632483248360e11b148061043b575061043b82610c17565b92915050565b60606000805461045090611aae565b80601f016020809104026020016040519081016040528092919081815260200182805461047c90611aae565b80156104c95780601f1061049e576101008083540402835291602001916104c9565b820191906000526020600020905b8154815290600101906020018083116104ac57829003601f168201915b5050505050905090565b60006104de82610c67565b506000908152600460205260409020546001600160a01b031690565b6000610505826106d5565b9050806001600160a01b0316836001600160a01b0316036105775760405162461bcd60e51b815260206004820152602160248201527f4552433732313a20617070726f76616c20746f2063757272656e74206f776e656044820152603960f91b60648201526084015b60405180910390fd5b336001600160a01b038216148061059357506105938133610b70565b6106055760405162461bcd60e51b815260206004820152603d60248201527f4552433732313a20617070726f76652063616c6c6572206973206e6f7420746f60448201527f6b656e206f776e6572206f7220617070726f76656420666f7220616c6c000000606482015260840161056e565b61060f8383610cc6565b505050565b61061e3382610d34565b61063a5760405162461bcd60e51b815260040161056e90611ae8565b61060f838383610d92565b61064d610ef6565b6040514790339082156108fc029083906000818181858888f1935050505015801561067c573d6000803e3d6000fd5b5060408051338152602081018390527f884edad9ce6fa2440d8a54cc123490eb96d2768479d49ff9c7366125a942436491015b60405180910390a150565b61060f83838360405180602001604052806000815250610994565b6000818152600260205260408120546001600160a01b03168061043b5760405162461bcd60e51b8152602060048201526018602482015277115490cdcc8c4e881a5b9d985b1a59081d1bdad95b88125160421b604482015260640161056e565b60006001600160a01b03821661079f5760405162461bcd60e51b815260206004820152602960248201527f4552433732313a2061646472657373207a65726f206973206e6f7420612076616044820152683634b21037bbb732b960b91b606482015260840161056e565b506001600160a01b031660009081526003602052604090205490565b6107c3610ef6565b6107cd6000610f50565b565b6107d7610ef6565b8281146108265760405162461bcd60e51b815260206004820152601860248201527f5265636569766572732d75726973206e6f74206d617463680000000000000000604482015260640161056e565b600954610834908490611b4b565b60095410156108855760405162461bcd60e51b815260206004820152601f60248201527f496e73756666696369656e742072656d61696e696e67207175616e7469747900604482015260640161056e565b7f661ac3ac15dee95950afb08351c73b1ba82496841bc85167d583b30fa0a34e43848484846040516108ba9493929190611b87565b60405180910390a160005b83811015610932576109208585838181106108e2576108e2611c69565b90506020020160208101906108f79190611808565b84848481811061090957610909611c69565b905060200281019061091b9190611c7f565b610fa2565b8061092a81611cc6565b9150506108c5565b5050505050565b60606001805461045090611aae565b61095333838361105a565b5050565b61095f610ef6565b600a8190556040518181527ffb92488ba7c255b32158331b4dd67ae708a8761b850ca51d1bbf57c177d35f89906020016106af565b61099e3383610d34565b6109ba5760405162461bcd60e51b815260040161056e90611ae8565b6109c684848484611128565b50505050565b60606109d782610c67565b600082815260066020526040812080546109f090611aae565b80601f0160208091040260200160405190810160405280929190818152602001828054610a1c90611aae565b8015610a695780601f10610a3e57610100808354040283529160200191610a69565b820191906000526020600020905b815481529060010190602001808311610a4c57829003601f168201915b505050505090506000610a8760408051602081019091526000815290565b90508051600003610a99575092915050565b815115610acb578082604051602001610ab3929190611cdf565b60405160208183030381529060405292505050919050565b610ad48461115b565b949350505050565b600a54341015610b265760405162461bcd60e51b815260206004820152601560248201527424b739bab33334b1b4b2b73a103830bcb6b2b73a1760591b604482015260640161056e565b610b31338383610fa2565b7f4c2f6dd3c99d950ddda88131093e3e393b8e548551839aa501d799a7e94c2a14338383604051610b6493929190611d0e565b60405180910390a15050565b6001600160a01b03918216600090815260056020908152604080832093909416825291909152205460ff1690565b610ba6610ef6565b6001600160a01b038116610c0b5760405162461bcd60e51b815260206004820152602660248201527f4f776e61626c653a206e6577206f776e657220697320746865207a65726f206160448201526564647265737360d01b606482015260840161056e565b610c1481610f50565b50565b60006001600160e01b031982166380ac58cd60e01b1480610c4857506001600160e01b03198216635b5e139f60e01b145b8061043b57506301ffc9a760e01b6001600160e01b031983161461043b565b6000818152600260205260409020546001600160a01b0316610c145760405162461bcd60e51b8152602060048201526018602482015277115490cdcc8c4e881a5b9d985b1a59081d1bdad95b88125160421b604482015260640161056e565b600081815260046020526040902080546001600160a01b0319166001600160a01b0384169081179091558190610cfb826106d5565b6001600160a01b03167f8c5be1e5ebec7d5bd14f71427d1e84f3dd0314c0f7b2291e5b200ac8c7c3b92560405160405180910390a45050565b600080610d40836106d5565b9050806001600160a01b0316846001600160a01b03161480610d675750610d678185610b70565b80610ad45750836001600160a01b0316610d80846104d3565b6001600160a01b031614949350505050565b826001600160a01b0316610da5826106d5565b6001600160a01b031614610dcb5760405162461bcd60e51b815260040161056e90611d3c565b6001600160a01b038216610e2d5760405162461bcd60e51b8152602060048201526024808201527f4552433732313a207472616e7366657220746f20746865207a65726f206164646044820152637265737360e01b606482015260840161056e565b826001600160a01b0316610e40826106d5565b6001600160a01b031614610e665760405162461bcd60e51b815260040161056e90611d3c565b600081815260046020908152604080832080546001600160a01b03199081169091556001600160a01b0387811680865260038552838620805460001901905590871680865283862080546001019055868652600290945282852080549092168417909155905184937fddf252ad1be2c89b69c2b068fc378daa952ba7f163c4a11628f55a4df523b3ef91a4505050565b6007546001600160a01b031633146107cd5760405162461bcd60e51b815260206004820181905260248201527f4f776e61626c653a2063616c6c6572206973206e6f7420746865206f776e6572604482015260640161056e565b600780546001600160a01b038381166001600160a01b0319831681179093556040519116919082907f8be0079c531659141344cd1fd0a4f28419497f9722a3daafe3b4186f6b6457e090600090a35050565b6008546009541015610ff65760405162461bcd60e51b815260206004820152601f60248201527f496e73756666696369656e742072656d61696e696e67207175616e7469747900604482015260640161056e565b611002836008546111cf565b61104460085483838080601f0160208091040260200160405190810160405280939291908181526020018383808284376000920191909152506111e992505050565b600854611052906001611b4b565b600855505050565b816001600160a01b0316836001600160a01b0316036110bb5760405162461bcd60e51b815260206004820152601960248201527f4552433732313a20617070726f766520746f2063616c6c657200000000000000604482015260640161056e565b6001600160a01b03838116600081815260056020908152604080832094871680845294825291829020805460ff191686151590811790915591519182527f17307eab39ab6107e8899845ad3d59bd9653f200f220920489ca2b5937696c31910160405180910390a3505050565b611133848484610d92565b61113f848484846112ad565b6109c65760405162461bcd60e51b815260040161056e90611d81565b606061116682610c67565b600061117d60408051602081019091526000815290565b9050600081511161119d57604051806020016040528060008152506111c8565b806111a7846113ae565b6040516020016111b8929190611cdf565b6040516020818303038152906040525b9392505050565b610953828260405180602001604052806000815250611441565b6000828152600260205260409020546001600160a01b03166112645760405162461bcd60e51b815260206004820152602e60248201527f45524337323155524953746f726167653a2055524920736574206f66206e6f6e60448201526d32bc34b9ba32b73a103a37b5b2b760911b606482015260840161056e565b600082815260066020526040902061127c8282611e21565b506040518281527ff8e1a15aba9398e019f0b49df1a4fde98ee17ae345cb5f6b5e2c27f5033e8ce790602001610b64565b60006001600160a01b0384163b156113a357604051630a85bd0160e11b81526001600160a01b0385169063150b7a02906112f1903390899088908890600401611ee1565b6020604051808303816000875af192505050801561132c575060408051601f3d908101601f1916820190925261132991810190611f1e565b60015b611389573d80801561135a576040519150601f19603f3d011682016040523d82523d6000602084013e61135f565b606091505b5080516000036113815760405162461bcd60e51b815260040161056e90611d81565b805181602001fd5b6001600160e01b031916630a85bd0160e11b149050610ad4565b506001949350505050565b606060006113bb83611474565b600101905060008167ffffffffffffffff8111156113db576113db611917565b6040519080825280601f01601f191660200182016040528015611405576020820181803683370190505b5090508181016020015b600019016f181899199a1a9b1b9c1cb0b131b232b360811b600a86061a8153600a850494508461140f57509392505050565b61144b838361154c565b61145860008484846112ad565b61060f5760405162461bcd60e51b815260040161056e90611d81565b60008072184f03e93ff9f4daa797ed6e38ed64bf6a1f0160401b83106114b35772184f03e93ff9f4daa797ed6e38ed64bf6a1f0160401b830492506040015b6d04ee2d6d415b85acef810000000083106114df576d04ee2d6d415b85acef8100000000830492506020015b662386f26fc1000083106114fd57662386f26fc10000830492506010015b6305f5e1008310611515576305f5e100830492506008015b612710831061152957612710830492506004015b6064831061153b576064830492506002015b600a831061043b5760010192915050565b6001600160a01b0382166115a25760405162461bcd60e51b815260206004820181905260248201527f4552433732313a206d696e7420746f20746865207a65726f2061646472657373604482015260640161056e565b6000818152600260205260409020546001600160a01b0316156116075760405162461bcd60e51b815260206004820152601c60248201527f4552433732313a20746f6b656e20616c7265616479206d696e74656400000000604482015260640161056e565b6000818152600260205260409020546001600160a01b03161561166c5760405162461bcd60e51b815260206004820152601c60248201527f4552433732313a20746f6b656e20616c7265616479206d696e74656400000000604482015260640161056e565b6001600160a01b038216600081815260036020908152604080832080546001019055848352600290915280822080546001600160a01b0319168417905551839291907fddf252ad1be2c89b69c2b068fc378daa952ba7f163c4a11628f55a4df523b3ef908290a45050565b6001600160e01b031981168114610c1457600080fd5b6000602082840312156116ff57600080fd5b81356111c8816116d7565b60005b8381101561172557818101518382015260200161170d565b50506000910152565b6000815180845261174681602086016020860161170a565b601f01601f19169290920160200192915050565b6020815260006111c8602083018461172e565b60006020828403121561177f57600080fd5b5035919050565b80356001600160a01b038116811461179d57600080fd5b919050565b600080604083850312156117b557600080fd5b6117be83611786565b946020939093013593505050565b6000806000606084860312156117e157600080fd5b6117ea84611786565b92506117f860208501611786565b9150604084013590509250925092565b60006020828403121561181a57600080fd5b6111c882611786565b60008083601f84011261183557600080fd5b50813567ffffffffffffffff81111561184d57600080fd5b6020830191508360208260051b850101111561186857600080fd5b9250929050565b6000806000806040858703121561188557600080fd5b843567ffffffffffffffff8082111561189d57600080fd5b6118a988838901611823565b909650945060208701359150808211156118c257600080fd5b506118cf87828801611823565b95989497509550505050565b600080604083850312156118ee57600080fd5b6118f783611786565b91506020830135801515811461190c57600080fd5b809150509250929050565b634e487b7160e01b600052604160045260246000fd5b6000806000806080858703121561194357600080fd5b61194c85611786565b935061195a60208601611786565b925060408501359150606085013567ffffffffffffffff8082111561197e57600080fd5b818701915087601f83011261199257600080fd5b8135818111156119a4576119a4611917565b604051601f8201601f19908116603f011681019083821181831017156119cc576119cc611917565b816040528281528a60208487010111156119e557600080fd5b82602086016020830137600060208483010152809550505050505092959194509250565b60008060208385031215611a1c57600080fd5b823567ffffffffffffffff80821115611a3457600080fd5b818501915085601f830112611a4857600080fd5b813581811115611a5757600080fd5b866020828501011115611a6957600080fd5b60209290920196919550909350505050565b60008060408385031215611a8e57600080fd5b611a9783611786565b9150611aa560208401611786565b90509250929050565b600181811c90821680611ac257607f821691505b602082108103611ae257634e487b7160e01b600052602260045260246000fd5b50919050565b6020808252602d908201527f4552433732313a2063616c6c6572206973206e6f7420746f6b656e206f776e6560408201526c1c881bdc88185c1c1c9bdd9959609a1b606082015260800190565b634e487b7160e01b600052601160045260246000fd5b8082018082111561043b5761043b611b35565b81835281816020850137506000828201602090810191909152601f909101601f19169091010190565b6040808252810184905260008560608301825b87811015611bc8576001600160a01b03611bb384611786565b16825260209283019290910190600101611b9a565b506020915083810382850152808582528282019050828660051b8301018760005b88811015611c5957848303601f190184528135368b9003601e19018112611c0f57600080fd5b8a01868101903567ffffffffffffffff811115611c2b57600080fd5b803603821315611c3a57600080fd5b611c45858284611b5e565b958801959450505090850190600101611be9565b50909a9950505050505050505050565b634e487b7160e01b600052603260045260246000fd5b6000808335601e19843603018112611c9657600080fd5b83018035915067ffffffffffffffff821115611cb157600080fd5b60200191503681900382131561186857600080fd5b600060018201611cd857611cd8611b35565b5060010190565b60008351611cf181846020880161170a565b835190830190611d0581836020880161170a565b01949350505050565b6001600160a01b0384168152604060208201819052600090611d339083018486611b5e565b95945050505050565b60208082526025908201527f4552433732313a207472616e736665722066726f6d20696e636f72726563742060408201526437bbb732b960d91b606082015260800190565b60208082526032908201527f4552433732313a207472616e7366657220746f206e6f6e20455243373231526560408201527131b2b4bb32b91034b6b83632b6b2b73a32b960711b606082015260800190565b601f82111561060f57600081815260208120601f850160051c81016020861015611dfa5750805b601f850160051c820191505b81811015611e1957828155600101611e06565b505050505050565b815167ffffffffffffffff811115611e3b57611e3b611917565b611e4f81611e498454611aae565b84611dd3565b602080601f831160018114611e845760008415611e6c5750858301515b600019600386901b1c1916600185901b178555611e19565b600085815260208120601f198616915b82811015611eb357888601518255948401946001909101908401611e94565b5085821015611ed15787850151600019600388901b60f8161c191681555b5050505050600190811b01905550565b6001600160a01b0385811682528416602082015260408101839052608060608201819052600090611f149083018461172e565b9695505050505050565b600060208284031215611f3057600080fd5b81516111c8816116d756fea26469706673582212206cba11e559368b925cba7d4f9f7776330bd44788688d193c49f4c34a4383698164736f6c63430008140033",
  "immutableReferences": {},
  "source": "// SPDX-License-Identifier: GPL-3.0\r\n\r\nimport '@openzeppelin/contracts/token/ERC721/extensions/ERC721URIStorage.sol';\r\nimport '@openzeppelin/contracts/token/ERC721/ERC721.sol';\r\nimport '@openzeppelin/contracts/access/Ownable.sol';\r\n\r\npragma solidity 0.8.20;\r\n\r\ncontract PeopleTang is ERC721URIStorage, Ownable {\r\n  uint256 public _CUR_TOKENID_ = 1;\r\n  /**  */\r\n  uint256 public remainingCount = 10000;\r\n  /**  */\r\n  uint256 public price = 0.0168 ether;\r\n\r\n  constructor(string memory _name, string memory _symbol) ERC721(_name, _symbol) {}\r\n\r\n  // ============ Events ============\r\n  event ChangePrice(uint256 newPrice);\r\n  event Withdraw(address account, uint256 amount);\r\n  event Mint(address account, string uri);\r\n  event MintOwner(address[] receivers, string[] uris);\r\n\r\n  // ============= MINT =============\r\n  function _mint_comm(address to, string calldata uri) internal virtual {\r\n    require(remainingCount >= _CUR_TOKENID_, 'Insufficient remaining quantity');\r\n    _safeMint(to, _CUR_TOKENID_);\r\n    _setTokenURI(_CUR_TOKENID_, uri);\r\n    _CUR_TOKENID_ = _CUR_TOKENID_ + 1;\r\n  }\r\n\r\n  function mint(string calldata uri) external payable {\r\n    require(msg.value >= price, 'Insufficient payment.');\r\n    _mint_comm(msg.sender, uri);\r\n    emit Mint(msg.sender, uri);\r\n  }\r\n\r\n  // ============ Ownable =============\r\n  function mintOwner(address[] calldata receivers, string[] calldata uris) external onlyOwner {\r\n    require(receivers.length == uris.length, 'Receivers-uris not match');\r\n    require(remainingCount >= remainingCount + receivers.length, 'Insufficient remaining quantity');\r\n    emit MintOwner(receivers, uris);\r\n\r\n    for (uint256 i = 0; i < receivers.length; i++) {\r\n      _mint_comm(receivers[i], uris[i]);\r\n    }\r\n  }\r\n\r\n  function changePrice(uint256 _price) external onlyOwner {\r\n    price = _price;\r\n    emit ChangePrice(_price);\r\n  }\r\n\r\n  function withdraw() external onlyOwner {\r\n    uint256 amount = address(this).balance;\r\n    payable(msg.sender).transfer(amount);\r\n    emit Withdraw(msg.sender, amount);\r\n  }\r\n}\r\n",
  "sourcePath": "E:\\git_2023\\PeopleTang\\truffle\\contracts\\PeopleTang.sol",
  "compiler": {
    "name": "solc",
    "version": "0.8.20+commit.a1b79de6.Emscripten.clang"
  },
  "schemaVersion": "3.4.13",
  "updatedAt": "2023-06-04T10:01:22.601Z",
  "networkType": "ethereum",
  "devdoc": {
    "events": {
      "Approval(address,address,uint256)": {
        "details": "Emitted when `owner` enables `approved` to manage the `tokenId` token."
      },
      "ApprovalForAll(address,address,bool)": {
        "details": "Emitted when `owner` enables or disables (`approved`) `operator` to manage all of its assets."
      },
      "BatchMetadataUpdate(uint256,uint256)": {
        "details": "This event emits when the metadata of a range of tokens is changed. So that the third-party platforms such as NFT market could timely update the images and related attributes of the NFTs."
      },
      "MetadataUpdate(uint256)": {
        "details": "This event emits when the metadata of a token is changed. So that the third-party platforms such as NFT market could timely update the images and related attributes of the NFT."
      },
      "Transfer(address,address,uint256)": {
        "details": "Emitted when `tokenId` token is transferred from `from` to `to`."
      }
    },
    "kind": "dev",
    "methods": {
      "approve(address,uint256)": {
        "details": "See {IERC721-approve}."
      },
      "balanceOf(address)": {
        "details": "See {IERC721-balanceOf}."
      },
      "getApproved(uint256)": {
        "details": "See {IERC721-getApproved}."
      },
      "isApprovedForAll(address,address)": {
        "details": "See {IERC721-isApprovedForAll}."
      },
      "name()": {
        "details": "See {IERC721Metadata-name}."
      },
      "owner()": {
        "details": "Returns the address of the current owner."
      },
      "ownerOf(uint256)": {
        "details": "See {IERC721-ownerOf}."
      },
      "renounceOwnership()": {
        "details": "Leaves the contract without owner. It will not be possible to call `onlyOwner` functions. Can only be called by the current owner. NOTE: Renouncing ownership will leave the contract without an owner, thereby disabling any functionality that is only available to the owner."
      },
      "safeTransferFrom(address,address,uint256)": {
        "details": "See {IERC721-safeTransferFrom}."
      },
      "safeTransferFrom(address,address,uint256,bytes)": {
        "details": "See {IERC721-safeTransferFrom}."
      },
      "setApprovalForAll(address,bool)": {
        "details": "See {IERC721-setApprovalForAll}."
      },
      "supportsInterface(bytes4)": {
        "details": "See {IERC165-supportsInterface}"
      },
      "symbol()": {
        "details": "See {IERC721Metadata-symbol}."
      },
      "tokenURI(uint256)": {
        "details": "See {IERC721Metadata-tokenURI}."
      },
      "transferFrom(address,address,uint256)": {
        "details": "See {IERC721-transferFrom}."
      },
      "transferOwnership(address)": {
        "details": "Transfers ownership of the contract to a new account (`newOwner`). Can only be called by the current owner."
      }
    },
    "version": 1
  },
  "userdoc": {
    "kind": "user",
    "methods": {
      "price()": {
        "notice": " "
      },
      "remainingCount()": {
        "notice": " "
      }
    },
    "version": 1
  }
}